{
  "_format": "hh-sol-artifact-1",
  "contractName": "StakeContract",
  "sourceName": "contracts/StakeContract.sol",
  "abi": [
    {
      "inputs": [
        {
          "internalType": "contract IERC20",
          "name": "_erc20_contract_address",
          "type": "address"
        }
      ],
      "stateMutability": "nonpayable",
      "type": "constructor"
    },
    {
      "anonymous": false,
      "inputs": [
        {
          "indexed": false,
          "internalType": "address",
          "name": "to",
          "type": "address"
        },
        {
          "indexed": false,
          "internalType": "uint256",
          "name": "amount",
          "type": "uint256"
        }
      ],
      "name": "TokensUnstaked",
      "type": "event"
    },
    {
      "anonymous": false,
      "inputs": [
        {
          "indexed": false,
          "internalType": "uint256",
          "name": "id",
          "type": "uint256"
        },
        {
          "indexed": false,
          "internalType": "address",
          "name": "from",
          "type": "address"
        },
        {
          "indexed": false,
          "internalType": "uint256",
          "name": "amount",
          "type": "uint256"
        }
      ],
      "name": "tokensStaked",
      "type": "event"
    },
    {
      "inputs": [],
      "name": "erc20Contract",
      "outputs": [
        {
          "internalType": "contract IERC20",
          "name": "",
          "type": "address"
        }
      ],
      "stateMutability": "view",
      "type": "function"
    },
    {
      "inputs": [],
      "name": "owner",
      "outputs": [
        {
          "internalType": "address",
          "name": "",
          "type": "address"
        }
      ],
      "stateMutability": "view",
      "type": "function"
    },
    {
      "inputs": [
        {
          "internalType": "contract IERC20",
          "name": "_token",
          "type": "address"
        },
        {
          "internalType": "uint256",
          "name": "_amount",
          "type": "uint256"
        },
        {
          "internalType": "uint8",
          "name": "_option",
          "type": "uint8"
        }
      ],
      "name": "stakeTokens",
      "outputs": [],
      "stateMutability": "nonpayable",
      "type": "function"
    },
    {
      "inputs": [
        {
          "internalType": "uint256",
          "name": "",
          "type": "uint256"
        }
      ],
      "name": "stakes",
      "outputs": [
        {
          "internalType": "address",
          "name": "author",
          "type": "address"
        },
        {
          "internalType": "contract IERC20",
          "name": "token",
          "type": "address"
        },
        {
          "internalType": "uint256",
          "name": "balance",
          "type": "uint256"
        },
        {
          "internalType": "uint256",
          "name": "balanceToWithdraw",
          "type": "uint256"
        },
        {
          "internalType": "uint256",
          "name": "initTime",
          "type": "uint256"
        },
        {
          "internalType": "uint256",
          "name": "withdrawTime",
          "type": "uint256"
        }
      ],
      "stateMutability": "view",
      "type": "function"
    },
    {
      "inputs": [
        {
          "internalType": "contract IERC20",
          "name": "_token",
          "type": "address"
        },
        {
          "internalType": "uint256",
          "name": "_amount",
          "type": "uint256"
        }
      ],
      "name": "transferAccidentallyLockedTokens",
      "outputs": [],
      "stateMutability": "nonpayable",
      "type": "function"
    },
    {
      "inputs": [
        {
          "internalType": "uint256",
          "name": "_stakeId",
          "type": "uint256"
        }
      ],
      "name": "unstakeTokens",
      "outputs": [],
      "stateMutability": "nonpayable",
      "type": "function"
    }
  ],
  "bytecode": "0x6080604052604051806080016040528062278d0063ffffffff1681526020016276a70063ffffffff16815260200162ed4e0063ffffffff1681526020016301da9c0063ffffffff1681525060039060046200005c929190620001f3565b506040518060800160405280600560ff168152602001600f60ff168152602001602860ff168152602001606460ff168152506007906004620000a092919062000240565b5064e8d4a51000600b55348015620000b757600080fd5b50604051620020df380380620020df8339818101604052810190620000dd9190620002c0565b33600060016101000a81548173ffffffffffffffffffffffffffffffffffffffff021916908373ffffffffffffffffffffffffffffffffffffffff160217905550600073ffffffffffffffffffffffffffffffffffffffff168173ffffffffffffffffffffffffffffffffffffffff16141562000191576040517f08c379a0000000000000000000000000000000000000000000000000000000008152600401620001889062000313565b60405180910390fd5b80600c60006101000a81548173ffffffffffffffffffffffffffffffffffffffff021916908373ffffffffffffffffffffffffffffffffffffffff16021790555060008060006101000a81548160ff02191690831515021790555050620003f7565b82600481019282156200022d579160200282015b828111156200022c578251829063ffffffff1690559160200191906001019062000207565b5b5090506200023c91906200028a565b5090565b826004810192821562000277579160200282015b8281111562000276578251829060ff1690559160200191906001019062000254565b5b5090506200028691906200028a565b5090565b5b80821115620002a55760008160009055506001016200028b565b5090565b600081519050620002ba81620003dd565b92915050565b600060208284031215620002d357600080fd5b6000620002e384828501620002a9565b91505092915050565b6000620002fb602f8362000335565b915062000308826200038e565b604082019050919050565b600060208201905081810360008301526200032e81620002ec565b9050919050565b600082825260208201905092915050565b600062000353826200036e565b9050919050565b6000620003678262000346565b9050919050565b600073ffffffffffffffffffffffffffffffffffffffff82169050919050565b7f5f65726332305f636f6e74726163745f6164647265737320616464726573732060008201527f63616e206e6f74206265207a65726f0000000000000000000000000000000000602082015250565b620003e8816200035a565b8114620003f457600080fd5b50565b611cd880620004076000396000f3fe608060405234801561001057600080fd5b50600436106100625760003560e01c80633e99494214610067578063608e4dd014610083578063637888c01461009f5780638da5cb5b146100bb578063a8f6c913146100d9578063d5a44f86146100f7575b600080fd5b610081600480360381019061007c9190611053565b61012c565b005b61009d600480360381019061009891906110de565b610390565b005b6100b960048036038101906100b4919061108f565b61064b565b005b6100c3610b2b565b6040516100d09190611382565b60405180910390f35b6100e1610b51565b6040516100ee919061145e565b60405180910390f35b610111600480360381019061010c91906110de565b610b77565b604051610123969594939291906113d4565b60405180910390f35b600060019054906101000a900473ffffffffffffffffffffffffffffffffffffffff1673ffffffffffffffffffffffffffffffffffffffff163373ffffffffffffffffffffffffffffffffffffffff16146101bc576040517f08c379a00000000000000000000000000000000000000000000000000000000081526004016101b39061157b565b60405180910390fd5b60008054906101000a900460ff161561020a576040517f08c379a00000000000000000000000000000000000000000000000000000000081526004016102019061155b565b60405180910390fd5b60016000806101000a81548160ff021916908315150217905550600073ffffffffffffffffffffffffffffffffffffffff168273ffffffffffffffffffffffffffffffffffffffff161415610294576040517f08c379a000000000000000000000000000000000000000000000000000000000815260040161028b9061153b565b60405180910390fd5b600c60009054906101000a900473ffffffffffffffffffffffffffffffffffffffff1673ffffffffffffffffffffffffffffffffffffffff168273ffffffffffffffffffffffffffffffffffffffff161415610325576040517f08c379a000000000000000000000000000000000000000000000000000000000815260040161031c9061149b565b60405180910390fd5b610372600060019054906101000a900473ffffffffffffffffffffffffffffffffffffffff16828473ffffffffffffffffffffffffffffffffffffffff16610bf39092919063ffffffff16565b60008060006101000a81548160ff0219169083151502179055505050565b60008054906101000a900460ff16156103de576040517f08c379a00000000000000000000000000000000000000000000000000000000081526004016103d59061155b565b60405180910390fd5b60016000806101000a81548160ff0219169083151502179055506000600260008381526020019081526020016000206040518060c00160405290816000820160009054906101000a900473ffffffffffffffffffffffffffffffffffffffff1673ffffffffffffffffffffffffffffffffffffffff1673ffffffffffffffffffffffffffffffffffffffff1681526020016001820160009054906101000a900473ffffffffffffffffffffffffffffffffffffffff1673ffffffffffffffffffffffffffffffffffffffff1673ffffffffffffffffffffffffffffffffffffffff16815260200160028201548152602001600382015481526020016004820154815260200160058201548152505090508060a0015142106105f25761052c338260600151836020015173ffffffffffffffffffffffffffffffffffffffff16610bf39092919063ffffffff16565b60026000838152602001908152602001600020600080820160006101000a81549073ffffffffffffffffffffffffffffffffffffffff02191690556001820160006101000a81549073ffffffffffffffffffffffffffffffffffffffff0219169055600282016000905560038201600090556004820160009055600582016000905550507f9845e367b683334e5c0b12d7b81721ac518e649376fa65e3d68324e8f34f26793382606001516040516105e5929190611435565b60405180910390a161062d565b6040517f08c379a00000000000000000000000000000000000000000000000000000000081526004016106249061151b565b60405180910390fd5b5060008060006101000a81548160ff02191690831515021790555050565b60008054906101000a900460ff1615610699576040517f08c379a00000000000000000000000000000000000000000000000000000000081526004016106909061155b565b60405180910390fd5b60016000806101000a81548160ff021916908315150217905550600c60009054906101000a900473ffffffffffffffffffffffffffffffffffffffff1673ffffffffffffffffffffffffffffffffffffffff168373ffffffffffffffffffffffffffffffffffffffff1614610743576040517f08c379a000000000000000000000000000000000000000000000000000000000815260040161073a906114bb565b60405180910390fd5b8273ffffffffffffffffffffffffffffffffffffffff166370a08231336040518263ffffffff1660e01b815260040161077c9190611382565b60206040518083038186803b15801561079457600080fd5b505afa1580156107a8573d6000803e3d6000fd5b505050506040513d601f19601f820116820180604052508101906107cc9190611107565b82111561080e576040517f08c379a0000000000000000000000000000000000000000000000000000000008152600401610805906115db565b60405180910390fd5b600b54821115610853576040517f08c379a000000000000000000000000000000000000000000000000000000000815260040161084a906115fb565b60405180910390fd5b60048160ff1610610899576040517f08c379a0000000000000000000000000000000000000000000000000000000008152600401610890906114db565b60405180910390fd5b6108c63330848673ffffffffffffffffffffffffffffffffffffffff16610c79909392919063ffffffff16565b60004290506000610931606461092360078660ff1660048110610912577f4e487b7100000000000000000000000000000000000000000000000000000000600052603260045260246000fd5b015487610d0290919063ffffffff16565b610d1890919063ffffffff16565b90503360026000600154815260200190815260200160002060000160006101000a81548173ffffffffffffffffffffffffffffffffffffffff021916908373ffffffffffffffffffffffffffffffffffffffff1602179055508460026000600154815260200190815260200160002060010160006101000a81548173ffffffffffffffffffffffffffffffffffffffff021916908373ffffffffffffffffffffffffffffffffffffffff1602179055508360026000600154815260200190815260200160002060020181905550610a118185610d2e90919063ffffffff16565b600260006001548152602001908152602001600020600301819055508160026000600154815260200190815260200160002060040181905550610a9b60038460ff1660048110610a8a577f4e487b7100000000000000000000000000000000000000000000000000000000600052603260045260246000fd5b015483610d2e90919063ffffffff16565b600260006001548152602001908152602001600020600501819055507fb05bdf966b31861b3ea2c26c95b018b2fcf23dd8fb5dbbedcdacd2b2bbd0864a6001543386604051610aec9392919061161b565b60405180910390a1610b0960018054610d2e90919063ffffffff16565b50505060008060006101000a81548160ff021916908315150217905550505050565b600060019054906101000a900473ffffffffffffffffffffffffffffffffffffffff1681565b600c60009054906101000a900473ffffffffffffffffffffffffffffffffffffffff1681565b60026020528060005260406000206000915090508060000160009054906101000a900473ffffffffffffffffffffffffffffffffffffffff16908060010160009054906101000a900473ffffffffffffffffffffffffffffffffffffffff16908060020154908060030154908060040154908060050154905086565b610c748363a9059cbb60e01b8484604051602401610c12929190611435565b604051602081830303815290604052907bffffffffffffffffffffffffffffffffffffffffffffffffffffffff19166020820180517bffffffffffffffffffffffffffffffffffffffffffffffffffffffff8381831617835250505050610d44565b505050565b610cfc846323b872dd60e01b858585604051602401610c9a9392919061139d565b604051602081830303815290604052907bffffffffffffffffffffffffffffffffffffffffffffffffffffffff19166020820180517bffffffffffffffffffffffffffffffffffffffffffffffffffffffff8381831617835250505050610d44565b50505050565b60008183610d10919061170b565b905092915050565b60008183610d2691906116da565b905092915050565b60008183610d3c9190611684565b905092915050565b6000610da6826040518060400160405280602081526020017f5361666545524332303a206c6f772d6c6576656c2063616c6c206661696c65648152508573ffffffffffffffffffffffffffffffffffffffff16610e0b9092919063ffffffff16565b9050600081511115610e065780806020019051810190610dc6919061102a565b610e05576040517f08c379a0000000000000000000000000000000000000000000000000000000008152600401610dfc906115bb565b60405180910390fd5b5b505050565b6060610e1a8484600085610e23565b90509392505050565b606082471015610e68576040517f08c379a0000000000000000000000000000000000000000000000000000000008152600401610e5f906114fb565b60405180910390fd5b610e7185610f37565b610eb0576040517f08c379a0000000000000000000000000000000000000000000000000000000008152600401610ea79061159b565b60405180910390fd5b6000808673ffffffffffffffffffffffffffffffffffffffff168587604051610ed9919061136b565b60006040518083038185875af1925050503d8060008114610f16576040519150601f19603f3d011682016040523d82523d6000602084013e610f1b565b606091505b5091509150610f2b828286610f5a565b92505050949350505050565b6000808273ffffffffffffffffffffffffffffffffffffffff163b119050919050565b60608315610f6a57829050610fba565b600083511115610f7d5782518084602001fd5b816040517f08c379a0000000000000000000000000000000000000000000000000000000008152600401610fb19190611479565b60405180910390fd5b9392505050565b600081519050610fd081611c46565b92915050565b600081359050610fe581611c5d565b92915050565b600081359050610ffa81611c74565b92915050565b60008151905061100f81611c74565b92915050565b60008135905061102481611c8b565b92915050565b60006020828403121561103c57600080fd5b600061104a84828501610fc1565b91505092915050565b6000806040838503121561106657600080fd5b600061107485828601610fd6565b925050602061108585828601610feb565b9150509250929050565b6000806000606084860312156110a457600080fd5b60006110b286828701610fd6565b93505060206110c386828701610feb565b92505060406110d486828701611015565b9150509250925092565b6000602082840312156110f057600080fd5b60006110fe84828501610feb565b91505092915050565b60006020828403121561111957600080fd5b600061112784828501611000565b91505092915050565b61113981611765565b82525050565b600061114a82611652565b6111548185611668565b93506111648185602086016117f0565b80840191505092915050565b611179816117cc565b82525050565b600061118a8261165d565b6111948185611673565b93506111a48185602086016117f0565b6111ad81611881565b840191505092915050565b60006111c5604c83611673565b91506111d082611892565b606082019050919050565b60006111e8607083611673565b91506111f382611907565b608082019050919050565b600061120b600e83611673565b9150611216826119a2565b602082019050919050565b600061122e602683611673565b9150611239826119cb565b604082019050919050565b6000611251603f83611673565b915061125c82611a1a565b604082019050919050565b6000611274601d83611673565b915061127f82611a69565b602082019050919050565b6000611297600e83611673565b91506112a282611a92565b602082019050919050565b60006112ba602c83611673565b91506112c582611abb565b604082019050919050565b60006112dd601d83611673565b91506112e882611b0a565b602082019050919050565b6000611300602a83611673565b915061130b82611b33565b604082019050919050565b6000611323604183611673565b915061132e82611b82565b606082019050919050565b6000611346602783611673565b915061135182611bf7565b604082019050919050565b611365816117b5565b82525050565b6000611377828461113f565b915081905092915050565b60006020820190506113976000830184611130565b92915050565b60006060820190506113b26000830186611130565b6113bf6020830185611130565b6113cc604083018461135c565b949350505050565b600060c0820190506113e96000830189611130565b6113f66020830188611170565b611403604083018761135c565b611410606083018661135c565b61141d608083018561135c565b61142a60a083018461135c565b979650505050505050565b600060408201905061144a6000830185611130565b611457602083018461135c565b9392505050565b60006020820190506114736000830184611170565b92915050565b60006020820190508181036000830152611493818461117f565b905092915050565b600060208201905081810360008301526114b4816111b8565b9050919050565b600060208201905081810360008301526114d4816111db565b9050919050565b600060208201905081810360008301526114f4816111fe565b9050919050565b6000602082019050818103600083015261151481611221565b9050919050565b6000602082019050818103600083015261153481611244565b9050919050565b6000602082019050818103600083015261155481611267565b9050919050565b600060208201905081810360008301526115748161128a565b9050919050565b60006020820190508181036000830152611594816112ad565b9050919050565b600060208201905081810360008301526115b4816112d0565b9050919050565b600060208201905081810360008301526115d4816112f3565b9050919050565b600060208201905081810360008301526115f481611316565b9050919050565b6000602082019050818103600083015261161481611339565b9050919050565b6000606082019050611630600083018661135c565b61163d6020830185611130565b61164a604083018461135c565b949350505050565b600081519050919050565b600081519050919050565b600081905092915050565b600082825260208201905092915050565b600061168f826117b5565b915061169a836117b5565b9250827fffffffffffffffffffffffffffffffffffffffffffffffffffffffffffffffff038211156116cf576116ce611823565b5b828201905092915050565b60006116e5826117b5565b91506116f0836117b5565b925082611700576116ff611852565b5b828204905092915050565b6000611716826117b5565b9150611721836117b5565b9250817fffffffffffffffffffffffffffffffffffffffffffffffffffffffffffffffff048311821515161561175a57611759611823565b5b828202905092915050565b600061177082611795565b9050919050565b60008115159050919050565b600061178e82611765565b9050919050565b600073ffffffffffffffffffffffffffffffffffffffff82169050919050565b6000819050919050565b600060ff82169050919050565b60006117d7826117de565b9050919050565b60006117e982611795565b9050919050565b60005b8381101561180e5780820151818401526020810190506117f3565b8381111561181d576000848401525b50505050565b7f4e487b7100000000000000000000000000000000000000000000000000000000600052601160045260246000fd5b7f4e487b7100000000000000000000000000000000000000000000000000000000600052601260045260246000fd5b6000601f19601f8301169050919050565b7f546f6b656e20616464726573732063616e206e6f74206265204552433230206160008201527f646472657373207768696368207761732070617373656420696e746f2074686560208201527f20636f6e7374727563746f720000000000000000000000000000000000000000604082015250565b7f596f7520617265206f6e6c7920616c6c6f77656420746f207374616b6520746860008201527f65206f6666696369616c20657263323020746f6b656e2061646472657373207760208201527f68696368207761732070617373656420696e746f207468697320636f6e74726160408201527f6374277320636f6e7374727563746f7200000000000000000000000000000000606082015250565b7f496e76616c6964206f7074696f6e000000000000000000000000000000000000600082015250565b7f416464726573733a20696e73756666696369656e742062616c616e636520666f60008201527f722063616c6c0000000000000000000000000000000000000000000000000000602082015250565b7f546f6b656e7320617265206f6e6c7920617661696c61626c652061667465722060008201527f636f72726563742074696d6520706572696f642068617320656c617073656400602082015250565b7f546f6b656e20616464726573732063616e206e6f74206265207a65726f000000600082015250565b7f4e6f2072652d656e7472616e6379000000000000000000000000000000000000600082015250565b7f4d6573736167652073656e646572206d7573742062652074686520636f6e747260008201527f6163742773206f776e65722e0000000000000000000000000000000000000000602082015250565b7f416464726573733a2063616c6c20746f206e6f6e2d636f6e7472616374000000600082015250565b7f5361666545524332303a204552433230206f7065726174696f6e20646964206e60008201527f6f74207375636365656400000000000000000000000000000000000000000000602082015250565b7f4e6f7420656e6f75676820535441544520746f6b656e7320696e20796f75722060008201527f77616c6c65742c20706c6561736520747279206c6573736572205f616d6f756e60208201527f7400000000000000000000000000000000000000000000000000000000000000604082015250565b7f43616e6e6f74207374616b65206d6f7265207468616e20313030302062696c2e60008201527f20746f6b656e7300000000000000000000000000000000000000000000000000602082015250565b611c4f81611777565b8114611c5a57600080fd5b50565b611c6681611783565b8114611c7157600080fd5b50565b611c7d816117b5565b8114611c8857600080fd5b50565b611c94816117bf565b8114611c9f57600080fd5b5056fea26469706673582212206e76913cc4c04acbac3f78fdb6e7115ecac98f18124ea94ea9518dacc86aa17564736f6c63430008040033",
  "linkReferences": {},
  "deployedLinkReferences": {}
}